:100000009BC00000B5C00000B3C00000B1C000003C
:10001000AFC00000ADC00000ABC00000A9C0000030
:10002000A7C00000A5C00000C0C10000A1C0000022
:100030009FC000009DC000009BC0000099C0000050
:1000400097C0000095C0000093C0000091C0000060
:100050008FC000008DC000008BC0000089C0000070
:1000600087C0000085C0000083C0000081C0000080
:100070007FC000007DC000007BC0000079C0000090
:1000800077C0000075C0000073C0000071C00000A0
:100090006FC000006DC000006BC0000069C00000B0
:1000A00067C0000065C0000063C000001C034C0076
:1000B000550046004100200043004400430020005A
:1000C000440065006D006F000000180344006500E7
:1000D00061006E002000430061006D006500720049
:1000E000610000000403090409023E00020100C08F
:1000F000320904000001020201000524001001047D
:100100002402060524060001070582030800FF09F2
:10011000040100020A0000000705040210000507A0
:100120000583021000051201100102000008EB0314
:10013000442001000102DC0111241FBECFEFDAE0F0
:10014000DEBFCDBF11E0A0E0B1E0E0E7F9E102C021
:1001500005900D92A038B107D9F711E0A0E8B1E001
:1001600001C01D92AD3AB107E1F732D00C94B60C44
:1001700047CF84B7877F84BF88E10FB6F894809318
:100180006000109260000FBE90E080E80FB6F89417
:1001900080936100909361000FBE84B184B98AB1ED
:1001A0008AB98DB18DB985B185B98BB18BB98EB155
:1001B0008EB984EA80937A00ECEBF0E08081846071
:1001C00080831092B9008AE08093B8000C94B00943
:1001D000D0DF7894B9D50E94420917D4FBCF089597
:1001E000089542E061EC82E088D042E161E883E07A
:1001F00084D042E160E884E080D010920001109247
:100200000101109202011092030108958091A6014C
:10021000813229F0823249F1803289F512C0809111
:10022000A501813A61F58091E800877F8093E8001D
:1002300067E070E080E091E079D18091E8008B7711
:1002400011C08091A5018132D1F48091E800877FAF
:100250008093E80067E070E080E091E0C6D1809193
:10026000E8008E778093E80008958091A50181329F
:1002700031F48091E800877F8093E80075C008958D
:10028000292F33272230310539F02330310549F049
:100290002130310521F128C0EEE3F0E088EE90E056
:1002A00027C099278130910561F08230910581F056
:1002B000892BD1F4E4EEF0E0E491F0E084EE90E0FC
:1002C00017C0EAECF0E0E491F0E08AEC90E010C0B6
:1002D000ECEAF0E0E491F0E08CEA90E009C0E2E1C1
:1002E000F0E086E291E004C0E0E0F0E080E090E041
:1002F000DA018D939C93CF010895982F2CC0909391
:10030000E900981739F07091EC002091ED005091C0
:10031000F00003C0242F762F50E021FD02C09F5F24
:100320001AC03091EB003E7F3093EB003091ED002E
:100330003D7F3093ED003091EB0031603093EB0066
:100340007093EC002093ED005093F0002091EE00AC
:1003500027FDE5CF07C0973090F28F708093E900BA
:1003600081E0089580E008958091A50187FD05C092
:100370008091E80080FF0EC012C08091E80082FDED
:1003800005C08091A4018111F8CF08958091E80003
:100390008B7708C08091A4018111EACF08958091E4
:1003A000E8008E778093E80008951F920F920FB6B1
:1003B0000F9211242F933F934F935F936F937F93EB
:1003C0008F939F93AF93BF93EF93FF938091E1003F
:1003D00082FF0AC08091E20082FF06C08091E100A6
:1003E0008B7F8093E10010D38091DA0080FF1BC0E7
:1003F0008091D80080FF17C08091DA008E7F8093B3
:10040000DA008091D90019BC80FF0AC082E089BD62
:1004100009B400FEFDCF81E08093A401E0DE03C0BB
:100420001092A401DDDE8091E10080FF18C0809170
:10043000E20080FF14C08091E2008E7F8093E20092
:100440008091E20080618093E2008091D800806218
:100450008093D80019BC85E08093A401D5D2809107
:10046000E10084FF2CC08091E20084FF28C019BC09
:1004700082E089BD09B400FEFDCF8091D8008F7D58
:100480008093D8008091E1008F7E8093E10080917D
:10049000E2008F7E8093E2008091E2008160809391
:1004A000E2008091A001811104C08091E30087FFE8
:1004B00002C084E001C081E08093A401A5D28091B4
:1004C000E10083FF22C08091E20083FF1EC0809183
:1004D000E100877F8093E10082E08093A401109285
:1004E000A0018091E1008E7F8093E1008091E20085
:1004F0008E7F8093E2008091E20080618093E20031
:1005000042E060E080E0F9DE7FD2FF91EF91BF91A1
:10051000AF919F918F917F916F915F914F913F919B
:100520002F910F900FBE0F901F9018954091AB0127
:100530005091AC014617570748F06115710539F421
:100540004091E8004E774093E80001C0BA01FC01F9
:1005500040E033C08091A401882309F442C0853073
:1005600009F441C08091E80083FD39C08091E80022
:1005700082FD2FC08091E80080FF1FC09091F300A2
:100580008091F200392F20E0A901482BCA0106C052
:1005900041914093F1006150710901966115710517
:1005A00019F088309105A0F341E0089709F040E088
:1005B0008091E8008E778093E8006115710551F60F
:1005C0004111C8CF06C08091A401882351F0853025
:1005D00051F08091E80082FFF6CF80E0089581E03D
:1005E000089582E0089583E008956115710529F466
:1005F0004091E8004B774093E800AC0128C080911F
:10060000A4018823B9F1853079F18091E80083FD58
:100610002DC08091E80082FFF2CFFA0107C08091DF
:10062000F1008193AF016150710961F0AF019091C8
:10063000F3008091F200392F20E0D901A82BCD01E1
:10064000892B69F78091E8008B778093E80061152A
:100650007105A9F68091E80080FD0AC08091A4018F
:10066000882341F08530B1F783E0089581E0089553
:1006700080E0089582E008954091AB015091AC0173
:100680004617570748F06115710539F44091E800A5
:100690004E774093E80001C0BA01FC0140E034C04D
:1006A0008091A401882309F443C0853009F442C035
:1006B0008091E80083FD3AC08091E80082FD30C05F
:1006C0008091E80080FF20C09091F3008091F200BB
:1006D000392F20E0A901482BCA0107C0449140935B
:1006E000F10031966150710901966115710519F09B
:1006F0008830910598F341E0089709F040E0809137
:10070000E8008E778093E8006115710549F6411184
:10071000C7CF06C08091A401882351F0853051F0E5
:100720008091E80082FFF6CF80E0089581E008958F
:1007300082E0089583E00895EF92FF920F931F9354
:10074000CF93DF93CDB7DEB7AC970FB6F894DEBF8B
:100750000FBECDBFE5EAF1E08091F100819321E089
:10076000ED3AF207C9F752DD8091E80083FF31C10D
:100770008091A5019091A601953009F487C038F4C5
:100780009130B1F170F0933009F023C131C098304D
:1007900009F4F4C0993009F400C1963009F019C188
:1007A0009CC0803821F0823809F013C108C08091C4
:1007B000A1019091A201992389F082600FC08091DC
:1007C000A9019091AA018F7099278093E9008091E7
:1007D000EB0085FB882780F91092E9009091E800F2
:1007E000977F9093E8008093F1001092F100D1C0C0
:1007F000882319F0823009F0ECC08F7121F082302B
:1008000009F0E7C00BC08091A701813009F0E1C079
:10081000933009F080E08093A2012FC08091A7015E
:1008200081112BC08091A9019091AA018F70992705
:10083000009709F4CEC08093E9002091EB0020FFDF
:100840001CC02091A601233021F48091EB0080622E
:1008500012C09091EB0090619093EB0021E030E0AA
:1008600001C0220F8A95EAF72093EA001092EA006D
:100870008091EB0088608093EB001092E9008091FA
:10088000E800877F8093E8006FDDA3C08111A1C0DD
:100890000091A7011091A8010F771127E02EFFB654
:1008A000F8948091E800877F8093E8005DDD809177
:1008B000E80080FFFCCF8091E3008078802B80935C
:1008C000E30080688093E300EE2011F083E001C034
:1008D00082E08093A401FFBE7CC08058823008F083
:1008E00078C08091A7019091A8018C3D23E09207E8
:1008F00071F583E08A838AE289834FB7F894DE0139
:10090000139620E03EE051E2E32FF0E050935700D1
:10091000E49120FF03C0E295EF703F5FEF708E2FF0
:1009200090E0EA3010F0C79601C0C0968D939D9379
:100930002F5F243149F74FBF8091E800877F809374
:10094000E8006AE270E0CE010196F0DD11C0AE0170
:10095000455D5F4F6091A90193DC0097D1F1209133
:10096000E800277F2093E800BC018BA59CA584DECE
:100970008091E8008B778093E8002BC0803849F5A0
:100980008091E800877F8093E8008091A0018093A8
:10099000F1008091E8008E7775CF81111AC0909197
:1009A000A7019230B0F48091E800877F8093E8003F
:1009B0009093A001D9DC8091A001811104C08091A5
:1009C000E30087FF02C084E001C081E08093A401BE
:1009D00008DC8091E80083FF0AC08091EB00806210
:1009E0008093EB008091E800877F8093E800AC96CD
:1009F0000FB6F894DEBF0FBECDBFDF91CF911F9130
:100A00000F91FF90EF9008950895CF938091A401E6
:100A10008823A9F08091E9008F709091EC0090FFFD
:100A200002C090E801C090E0C92FC82B1092E900E5
:100A30008091E80083FD80DECF70C093E900CF9104
:100A40000895FC0106C09091C80095FFFCCF8093EB
:100A5000CE0081918111F7CF089594EA9093BC0064
:100A600024E6629FB0011124615071099B0140E0AE
:100A700054EA1DC09091BC0097FF13C09091B9003B
:100A8000987F903169F0983319F0983021F408C0BC
:100A90005093BC000AC084E08093BC0081E00895BC
:100AA00041E09AE19A95F1F700C0215031092F3FBA
:100AB0009FEF390721F40BC0232B21F008C04423FA
:100AC000C9F2FACF84E08093BC0082E0089580935D
:100AD000BB0084E88093BC000EC02091BC00CB0119
:100AE000019727FF03C0672BB1F009C02AE12A95BF
:100AF000F1F700C0BC016F3F8FEF780771F780916D
:100B0000B900887F883149F0803439F084E98093D6
:100B1000BC0084E0089583E0089580E00895809308
:100B2000BB0084E88093BC008091BC0087FFFCCFB1
:100B30009091B900987F81E0983209F080E00895A3
:100B4000662311F024E801C024EC2093BC0020911E
:100B5000BC0027FFFCCF2091BB00FC0120839091BB
:100B6000B900987F81E0662319F0983521F002C022
:100B7000903509F080E00895AF92BF92CF92DF9256
:100B8000EF92FF920F931F93CF93DF9300D01F92AA
:100B9000CDB7DEB7D82EC62E8E7F29834A835B83DE
:100BA0005CDFF82E29814A815B81882379F02CC093
:100BB000F50181915F01B3DF81110BC06C2D8D2D8B
:100BC00081604BDFF82E882339F01EC05A01F22EC7
:100BD000F40EFA10EDCFF2CFEA940DC06801FFEFEA
:100BE000CF1ADF0A61E0E11060E0C801A9DFEA94F2
:100BF000882329F086018FEFE812F0CF02C085E04C
:100C0000F82E84E98093BC008F2D0F900F900F90E9
:100C1000DF91CF911F910F91FF90EF90DF90CF90D8
:100C2000BF90AF900895AF92BF92DF92EF92FF9284
:100C30000F931F93CF93DF9300D01F92CDB7DEB7F2
:100C4000F12E8E7F29834A835B8307DF182F29814A
:100C50004A815B81882349F01EC0F50181915F01C3
:100C60005EDF811105C015E00EC05A01D22ED40EF0
:100C7000DA10F3CF08C0F50181915F0150DF8111D7
:100C800005C015E005C0A02EBF2C0E0D0A11F3CF34
:100C900084E98093BC00812F0F900F900F90DF911B
:100CA000CF911F910F91FF90EF90DF90BF90AF9089
:100CB000089580937C0090FF04C080917B00806247
:100CC00003C080917B008F7D80937B0080917A00B0
:100CD000806480937A0008958091C80085FFFCCFDE
:100CE0008CE78093CE008091070180589091C800D6
:100CF00095FFFCCF8093CE002FE78AE196E021504C
:100D000080409040E1F700C0000008952091C800A5
:100D100025FFFCCF2EEF2093CE002091C80025FFA9
:100D2000FCCF21E02093CE008CCE2091C80025FF7F
:100D3000FCCF2EEF2093CE002091C80025FFFCCFE2
:100D400020EC2093CE007DCEAF92BF92CF92DF9267
:100D5000EF92FF920F931F93CF93DF9333B13472CF
:100D600084E190E020E0311104C0222329F02150D9
:100D700003C0243108F42F5F0197A9F7222321F043
:100D800001E010E0243110F400E010E033B13870DD
:100D900084E190E020E0311104C0222329F02150A9
:100DA00003C0243108F42F5F0197A9F7222321F013
:100DB000C1E0D0E0243110F4C0E0D0E03CB13074A8
:100DC00084E190E020E0311104C0222329F0215079
:100DD00003C0243108F42F5F0197A9F7222341F0C3
:100DE00081E090E0243110F480E090E07C0102C0CA
:100DF000E12CF12C33B1307184E190E020E031112D
:100E000004C0222329F0215003C0243108F42F5FAD
:100E10000197A9F7222341F081E090E0243110F4FA
:100E200080E090E06C0102C0C12CD12C39B130714E
:100E300084E190E020E0311104C0222329F0215008
:100E400003C0243108F42F5F0197A9F7222341F052
:100E500081E090E0243110F480E090E05C0102C079
:100E6000A12CB12C0115110569F4209759F4E11456
:100E7000F10441F4C114D10429F4A114B10411F412
:100E80001092810180918101811160C180910B01DB
:100E9000863009F4B1C080F4823009F43FC030F4E8
:100EA0008823F1F0813009F042C128C0843009F470
:100EB00072C008F084C056C0893009F4DFC038F42D
:100EC000873009F4B6C0883009F031C1C6C08B3014
:100ED00009F4ECC008F4D9C08C3009F028C1F9C07D
:100EE000E114F10419F081E080930B01C114D104E5
:100EF00009F41DC183E080930B0119C1E114F104D1
:100F000019F08CE080930B01C114D10411F0109200
:100F10000B01CD2B09F4A7C182E0D8C00115110542
:100F200019F081E080930B01209719F081E0809304
:100F30000B01E114F10439F0809107018A3118F4B2
:100F40008B5F80930701C114D10409F4F0C0209194
:100F50000701822F90E005970CF4E9C025502093FB
:100F60000701E5C0E114F10411F010920B01C11466
:100F7000D10419F088E080930B01CD2B09F473C1E3
:100F8000849880917E00806180937E0084E490E06C
:100F900090DE84E09BC00115110519F083E0809379
:100FA0000B01CD2B09F45FC1859880917E00806292
:100FB00080937E0085E490E07CDE85E087C00115AB
:100FC000110561F0849880917E00806180937E009D
:100FD00084E490E06EDE84E080930B01CD2B09F475
:100FE00042C1869880917E00806480937E0086E472
:100FF00090E05FDE86E06AC00115110561F085981A
:1010000080917E00806280937E0085E490E051DED6
:1010100085E080930B01CD2B09F425C18798809141
:101020007E00806880937E0087E490E042DE87E067
:101030004DC00115110561F0869880917E00806495
:1010400080937E0086E490E034DE86E080930B019E
:10105000CD2B09F408C183E039C0E114F10419F083
:1010600083E080930B01C114D10419F08CE08093CC
:101070000B01CD2B09F4F7C089E028C08EE18093E5
:101080000C018DE180930D0152C080E280930C0130
:101090008FE180930D010115110519F089E080930E
:1010A0000B01CD2B09F4DFC08BE010C082E28093EE
:1010B0000C0181E280930D010115110519F08AE000
:1010C00080930B01CD2B09F4CEC088E080930B01F7
:1010D00038C0E114F10439F088E080930B011092DC
:1010E000830110928201C114D10439F081E0809310
:1010F0000B0110928301109282010115110531F04C
:1011000082E191E09093830180938201209731F0F6
:1011100087E191E09093830180938201A114B1044F
:1011200031F08DE191E09093830180938201012B56
:1011300041F4CD2B31F4EF2821F4CD2811F4AB2864
:1011400029F081E08093810180930E0180910B0151
:10115000843008F48CC0883028F08950833008F03F
:1011600086C02FC080917A0084FFFCCF80917A00E6
:10117000806180937A0080917800909179009093BB
:101180008501809384019F938F9384E291E09F93E4
:101190008F9386E891E09F938F9322D10F900F90C9
:1011A0000F900F900F900F9086E891E0DF91CF9114
:1011B0001F910F91FF90EF90DF90CF90BF90AF9075
:1011C000B4CDEE24E39400E911E021E04DE051E0DC
:1011D0006AE088E6D1DC01E911E021E04CE051E071
:1011E0006AE088E6C9DC9091900180E0209191014D
:1011F000822B9093100180930F019F938F9384E231
:1012000091E09F938F9382E991E09F938F93E8D031
:1012100082E991E08ADD8FE295E70197F1F700C05E
:1012200000000F900F900F900F900F900F908091F3
:101230007A0084FFFCCF80917A00806180937A00ED
:10124000809178009091790090939D0180939C010A
:1012500082E0E82E0CE911E021E041E151E06AE092
:1012600080ECE1DC04C0012B09F06BCF64CFDF918F
:10127000CF911F910F91FF90EF90DF90CF90BF9093
:10128000AF90089580910E01882309F468C0809181
:101290000B01863009F453C078F4823041F130F408
:1012A0008823E1F0813009F058C01BC0843009F474
:1012B00040C008F041C036C0893009F43AC038F463
:1012C000873009F43FC0883009F047C02FC08B3009
:1012D000B1F190F18C3009F040C037C087E291E065
:1012E00023C084E391E012DD8EE391E035C087E412
:1012F00091E00CDD809107011F928F9384E291E0D1
:101300009F938F938EE991E09F938F9369D08EE99D
:1013100091E00BDDE1DC0F900F900F900F900F909C
:101320000F901BC085E591E0F1DC17C080E691E0ED
:10133000FBCF8CE691E0F8CF8EE691E0F5CF80E729
:1013400091E0F2CF82E791E0EFCF86E791E0DEDC3B
:101350008091820190918301E8DC10920E01089542
:10136000EF920F931F932FEF89E698E12150804071
:101370009040E1F700C0000083E390E09093CD003F
:101380008093CC0086E08093CA001092C80088E168
:101390008093C900539A5A9A75DF8FE080930701B2
:1013A0009BDC8498EEE7F0E080818061808384E4B8
:1013B00090E07FDCEE24E39409E011E021E048E0D6
:1013C00051E06AE088E62FDC00E811E021E04AE025
:1013D00051E06AE088E627DC1F910F91EF900895B5
:1013E000A0E1B0E0E5EFF9E098C20F89188D86E042
:1013F0008C831A8309838FEF9FE79E838D83AE01D1
:10140000455E5F4F588B4F87698D7A8DCE0101966F
:1014100008D0EF81F885E00FF11F10826096E4E0BC
:1014200098C2ACE0B0E0E6E1FAE069C27C016B0191
:101430008A01FC0117821682838181FFBAC1882448
:101440008394912C8C0E9D1EF7019381F60193FDE0
:10145000859193FF81916F01882309F4A6C185329C
:1014600039F493FD859193FF81916F01853221F4C9
:10147000B70190E0BAD1E8CF712C312C20E02032B6
:10148000A8F48B3261F028F4803251F0833271F489
:101490000BC08D3239F0803349F4216028C02260BE
:1014A000246025C0286023C0206121C027FD27C0FB
:1014B000382F30533A3078F426FF06C0FAE07F9E8A
:1014C000300D1124732E13C08AE0389E300D112484
:1014D000332E20620CC08E3221F426FD66C12064BA
:1014E00006C08C3611F4206802C0883641F4F6013B
:1014F00093FD859193FF81916F018111C0CF982F4A
:101500009554933018F09052933028F40C5F1F4F8D
:10151000FFE3F9830DC0833631F0833771F08335F3
:1015200009F05AC022C0F801808189830E5F1F4FE5
:1015300066246394712C540114C02801F2E04F0E0C
:10154000511CF801A080B18026FF03C0672D70E018
:1015500002C06FEF7FEFC5012C873CD13C018201B7
:101560002C856FE7262E222217C02801F2E04F0EAD
:10157000511CF801A080B18026FF03C0672D70E0E8
:1015800002C06FEF7FEFC5012C8719D13C012C857C
:1015900050E8252E222A820123FC1AC005C0B7017B
:1015A00080E290E022D13A94832D90E0681679068B
:1015B000B0F30EC0F50127FC859127FE81915F01F4
:1015C000B70190E012D131103A94F1E06F1A71082E
:1015D0006114710479F7E6C0843611F0893639F563
:1015E000F80127FF07C060817181828193810C5FC0
:1015F0001F4F08C060817181882777FD8095982FE3
:101600000E5F1F4F4FE6642E622297FF09C0909530
:101610008095709561957F4F8F4F9F4FF0E86F2AAF
:101620002AE030E0A4010DD1A82EA81843C08537C8
:1016300031F43FEEB32EB2222AE030E024C099EF1D
:10164000B92EB2228F36B9F020F4883509F0ADC03A
:101650000DC0803721F0883709F0A7C002C020E113
:10166000B22AB4FE0BC084E0B82A08C024FF09C027
:10167000E6E0BE2A06C028E030E005C020E130E008
:1016800002C020E132E0F801B7FE07C0608171813D
:10169000828193810C5F1F4F06C06081718180E061
:1016A00090E00E5F1F4FA401CCD0A82EA8188FE7A2
:1016B000682E6B2066FE0BC0362D3E7FA71450F4BB
:1016C00064FE0AC062FC08C0362D3E7E05C0BA2CFE
:1016D000362D03C0BA2C01C0B72C34FF0DC0FE015B
:1016E000EA0DF11D8081803311F4397E09C032FF8B
:1016F00006C0B394B39404C0832F867809F0B394E2
:1017000033FD13C030FF0EC07A2CB31458F4730CA1
:101710007B18B32C07C0B70180E290E03C8765D00E
:10172000B3943C85B314B8F304C0B31410F43B185D
:1017300001C0312C34FF11C0B70180E390E03C8739
:1017400054D03C8532FF1CC031FF03C088E590E0D7
:1017500002C088E790E0B7010CC0832F867881F043
:1017600031FD02C080E201C08BE237FD8DE2B7019E
:1017700090E03BD005C0B70180E390E036D07A948A
:10178000A714C8F3AA94F401EA0DF11DB7018081F2
:1017900090E02BD0A110F6CF05C0B70180E290E019
:1017A00024D03A943110F9CF4FCEF70126813781FA
:1017B00002C02FEF3FEFC9012C96E2E1BCC0FC0153
:1017C0000590615070400110D8F7809590958E0F6C
:1017D0009F1F0895FC016150704001900110D8F7DF
:1017E000809590958E0F9F1F08950F931F93CF9311
:1017F000DF938C01EB018B8181FD03C00FEF1FEFA5
:101800001AC082FF0DC02E813F818C819D812817D7
:10181000390764F4E881F9810193F983E88306C00C
:10182000E885F985802F0995892B41F78E819F8165
:1018300001969F838E83C801DF91CF911F910F91F5
:101840000895FA01AA27283051F1203181F1E89456
:101850006F936E7F6E5F7F4F8F4F9F4FAF4FB1E0A3
:101860003ED0B4E03CD0670F781F891F9A1FA11D9E
:10187000680F791F8A1F911DA11D6A0F711D811D9F
:10188000911DA11D20D009F468943F912AE0269F64
:1018900011243019305D3193DEF6CF010895462FC3
:1018A0004770405D4193B3E00FD0C9F7F6CF462FA4
:1018B0004F70405D4A3318F0495D31FD405241930D
:1018C00002D0A9F7EACFB4E0A695979587957795CA
:1018D0006795BA95C9F700976105710508959B0151
:1018E000AC010A2E06945795479537952795BA95DA
:1018F000C9F7620F731F841F951FA01D08952F92B3
:101900003F924F925F926F927F928F929F92AF928F
:10191000BF92CF92DF92EF92FF920F931F93CF93DC
:10192000DF93CDB7DEB7CA1BDB0B0FB6F894DEBF73
:101930000FBECDBF09942A88398848885F846E8499
:101940007D848C849B84AA84B984C884DF80EE80E3
:10195000FD800C811B81AA81B981CE0FD11D0FB6EC
:10196000F894DEBF0FBECDBFED010895F894FFCF10
:10197000000000000000080F161815091B1C0105C7
:1019800000684C6566740052696768740043656E50
:101990007465720025640048656C6C6F2C204A6F7A
:1019A0007368210053657474696E67733A004E6FF3
:1019B0007468696E672100533A20427269676874DF
:1019C0006E657373004144432076616C75657300E6
:1019D0004779726F2076616C756573005800590005
:1019E0005A00506F7400427574746F6E732100005A
:00000001FF
