:100000009BC00000B5C00000B3C00000B1C000003C
:10001000AFC00000ADC00000ABC00000A9C0000030
:10002000A7C00000A5C0000013C40000A1C00000CC
:100030009FC000009DC000009BC0000099C0000050
:1000400097C0000095C0000093C0000091C0000060
:100050008FC000008DC000008BC0000089C0000070
:1000600087C0000085C0000083C0000081C0000080
:100070007FC000007DC000007BC0000079C0000090
:1000800077C0000075C0000073C0000071C00000A0
:100090006FC000006DC000006BC0000069C00000B0
:1000A00067C0000065C0000063C000001C034C0076
:1000B000550046004100200043004400430020005A
:1000C000440065006D006F000000180344006500E7
:1000D00061006E002000430061006D006500720049
:1000E000610000000403090409023E00020100C08F
:1000F000320904000001020201000524001001047D
:100100002402060524060001070582030800FF09F2
:10011000040100020A0000000705040210000507A0
:100120000583021000051201100102000008EB0314
:10013000442001000102DC0111241FBECFEFDAE0F0
:10014000DEBFCDBF11E0A0E0B1E0E2EDF9E102C019
:1001500005900D92AE35B107D9F711E0AEE5B1E0EB
:1001600001C01D92AB37B107E1F787D20C94E70CC1
:1001700047CFA8E1B0E0EFEBF0E00C94180A6D8BEC
:100180007E8B8F8B988F298B3A8B4B8B5C8BBE0130
:10019000675F7F4FCE01459669D1BE016F5F7F4F8C
:1001A000CE01419663D18985823050F089818230B9
:1001B00038F0BE016F5F7F4FCE010996C6D101C0F6
:1001C0008FEF6896E2E00C94340AA8E1B0E0EBEE21
:1001D000F0E00C94180A6D8B7E8B8F8B988F298B97
:1001E0003A8B4B8B5C8BBE01675F7F4FCE01459690
:1001F0003DD1BE016F5F7F4FCE01419637D18985DA
:10020000823050F08981823038F0BE016F5F7F4FBD
:10021000CE0109969AD101C081E06896E2E00C9483
:10022000340AA8E0B0E0E7E1F1E00C94160A23E01C
:1002300029838B019C01002737FD03951127222775
:100240003327402F0A83611571058105910519F443
:1002500082E0898335C02EE130E03C832B83442348
:1002600071F061157105810520E8920769F1002799
:1002700011279801061B170B280B390B02C08B01A5
:100280009C01C901B8010E943F0A0197181619067E
:100290002CF00D831E832F83388712C0082E04C0D4
:1002A000000F111F221F331F0A94D2F70D831E83E4
:1002B0002F8338872EE130E0281B390B3C832B83BA
:1002C000CE01019609D004C060E070E080E09FECB0
:1002D0002896E4E00C94320A0F931F93CF93DF9398
:1002E000DC0114964D915D916D917C91179711965B
:1002F000EC9111978C91823020F460618FEF90E047
:10030000A6C0843009F49EC0823009F495C041151E
:1003100051056105710509F492C012962D913C9129
:10032000139722388FEF38070CF058C0C2E8DFEF80
:10033000C21BD30BCA31D1056CF58A019B010C2E6F
:1003400004C036952795179507950A94D2F781E052
:1003500090E0A0E0B0E00C2E04C0880F991FAA1F07
:10036000BB1F0A94D2F70197A109B10984239523F1
:10037000A623B72341E050E060E070E0892B8A2B90
:100380008B2B19F440E050E0BA01402B512B622B2B
:10039000732B03C040E050E0BA01DB01CA018F7744
:1003A0009927AA27BB2780349105A105B10539F407
:1003B00047FF09C0405C5F4F6F4F7F4F04C0415CF7
:1003C0005F4F6F4F7F4F81E090E041155105610510
:1003D00020E4720748F580E090E026C0203831051F
:1003E0008CF5DB01CA018F779927AA27BB278034B8
:1003F0009105A105B10539F447FF09C0405C5F4F85
:100400006F4F7F4F04C0415C5F4F6F4F7F4F77FD51
:1004100004C0C90181589F4F07C0769567955795CD
:100420004795C90180589F4F97E0769567955795F6
:1004300047959A95D1F70BC080E090E005C080E029
:1004400090E005C08FEF90E040E050E0BA01982FB7
:100450009695E0FB97F9362F80FB37F9642F752FBF
:10046000832FDF91CF911F910F910895CF92DF924B
:10047000EF92DC01FB01CC901196DC901197129663
:100480008C9112973FE7E32EE8226E2DA60170E0D3
:10049000982F991F9927991F13962C91822F880FB7
:1004A000892B90E027FB222720F92183009729F54B
:1004B000411551056105710511F482E027C082E8FC
:1004C0009FEF9383828327E0440F551F661F771F9A
:1004D0002A95D1F783E0808309C0440F551F661F1A
:1004E000771F828193810197938382834115510500
:1004F000610580E4780788F320C08F3F910579F487
:10050000411551056105710519F484E0808319C016
:10051000E4FE03C081E0808310C010820EC08F57BC
:1005200091099383828383E0808387E0440F551F82
:10053000661F771F8A95D1F770644483558366835D
:100540007783EF90DF90CF900895CF93FC01DB018C
:100550009081923008F452C08C91823008F44EC0E1
:10056000943071F4843039F411962C9130E081810B
:10057000281B310948C08181882309F43FC03BC052
:10058000843029F411968C91811138C034C0923096
:1005900019F48230B9F735C0823069F3C181119600
:1005A0008C911197C8131DC02281338112968D91B1
:1005B0009C911397821793070CF413C028173907DF
:1005C0000CF417C0448155816681778114968D9112
:1005D0009D910D90BC91A02D84179507A607B70794
:1005E00018F4C11108C00AC0481759076A077B07E9
:1005F00040F4C11103C02FEF3FEF05C021E030E010
:1006000002C020E030E0C901CF91089584B7877F10
:1006100084BF88E10FB6F894809360001092600068
:100620000FBE90E080E80FB6F8948093610090933D
:1006300061000FBE84B184B98AB18AB98DB18DB918
:1006400085B185B98BB18BB98EB18EB9FAD4EAE791
:10065000F0E085EA80838698AEE7B0E08C91806414
:100660008C9386E480937C00ABE7B0E08C918F7D27
:100670008C938081806480830895C8DF7894FFD450
:1006800017D4FDCF0895089542E061EC82E088D050
:1006900042E161E883E084D042E160E884E080D018
:1006A00010920001109201011092020110920301B8
:1006B000089580917401813229F0823249F18032AB
:1006C00089F512C080917301813A61F58091E8004B
:1006D000877F8093E80067E070E080E091E079D167
:1006E0008091E8008B7711C0809173018132D1F441
:1006F0008091E800877F8093E80067E070E080E009
:1007000091E0C6D18091E8008E778093E80008954B
:1007100080917301813231F48091E800877F80936A
:10072000E80075C00895292F33272230310539F0AC
:100730002330310549F02130310521F128C0EEE3A5
:10074000F0E088EE90E027C099278130910561F0B4
:100750008230910581F0892BD1F4E4EEF0E0E49150
:10076000F0E084EE90E017C0EAECF0E0E491F0E015
:100770008AEC90E010C0ECEAF0E0E491F0E08CEA62
:1007800090E009C0E2E1F0E086E291E004C0E0E040
:10079000F0E080E090E0DA018D939C93CF01089522
:1007A000982F2CC09093E900981739F07091EC00C5
:1007B0002091ED005091F00003C0242F762F50E0DF
:1007C00021FD02C09F5F1AC03091EB003E7F309345
:1007D000EB003091ED003D7F3093ED003091EB0068
:1007E00031603093EB007093EC002093ED00509358
:1007F000F0002091EE0027FDE5CF07C0973090F282
:100800008F708093E90081E0089580E008958091E1
:10081000730187FD05C08091E80080FF0EC012C003
:100820008091E80082FD05C0809172018111F8CFAE
:1008300008958091E8008B7708C080917201811142
:10084000EACF08958091E8008E778093E8000895BC
:100850001F920F920FB60F9211242F933F934F9335
:100860005F936F937F938F939F93AF93BF93EF9318
:10087000FF938091E10082FF0AC08091E20082FF35
:1008800006C08091E1008B7F8093E10010D38091BE
:10089000DA0080FF1BC08091D80080FF17C08091D4
:1008A000DA008E7F8093DA008091D90019BC80FF36
:1008B0000AC082E089BD09B400FEFDCF81E08093CB
:1008C0007201E0DE03C010927201DDDE8091E10072
:1008D00080FF18C08091E20080FF14C08091E20088
:1008E0008E7F8093E2008091E20080618093E2003D
:1008F0008091D80080628093D80019BC85E08093F5
:100900007201D5D28091E10084FF2CC08091E20079
:1009100084FF28C019BC82E089BD09B400FEFDCF68
:100920008091D8008F7D8093D8008091E1008F7EE8
:100930008093E1008091E2008F7E8093E2008091BD
:10094000E20081608093E20080916E01811104C019
:100950008091E30087FF02C084E001C081E08093C2
:100960007201A5D28091E10083FF22C08091E20054
:1009700083FF1EC08091E100877F8093E10082E0C9
:100980008093720110926E018091E1008E7F8093BE
:10099000E1008091E2008E7F8093E2008091E2008E
:1009A00080618093E20042E060E080E0F9DE7FD287
:1009B000FF91EF91BF91AF919F918F917F916F9137
:1009C0005F914F913F912F910F900FBE0F901F900D
:1009D00018954091790150917A014617570748F0D0
:1009E0006115710539F44091E8004E774093E800B5
:1009F00001C0BA01FC0140E033C08091720188233C
:100A000009F442C0853009F441C08091E80083FDBB
:100A100039C08091E80082FD2FC08091E80080FFFE
:100A20001FC09091F3008091F200392F20E0A901BE
:100A3000482BCA0106C041914093F10061507109F1
:100A400001966115710519F088309105A0F341E018
:100A5000089709F040E08091E8008E778093E800E5
:100A60006115710551F64111C8CF06C08091720120
:100A7000882351F0853051F08091E80082FFF6CF55
:100A800080E0089581E0089582E0089583E008956C
:100A90006115710529F44091E8004B774093E80017
:100AA000AC0128C0809172018823B9F1853079F1B9
:100AB0008091E80083FD2DC08091E80082FFF2CF95
:100AC000FA0107C08091F1008193AF016150710973
:100AD00061F0AF019091F3008091F200392F20E096
:100AE000D901A82BCD01892B69F78091E8008B777C
:100AF0008093E80061157105A9F68091E80080FDFA
:100B00000AC080917201882341F08530B1F783E0FB
:100B1000089581E0089580E0089582E0089540916D
:100B2000790150917A014617570748F06115710510
:100B300039F44091E8004E774093E80001C0BA01D3
:100B4000FC0140E034C080917201882309F443C065
:100B5000853009F442C08091E80083FD3AC080915D
:100B6000E80082FD30C08091E80080FF20C09091B5
:100B7000F3008091F200392F20E0A901482BCA012F
:100B800007C044914093F10031966150710901967C
:100B90006115710519F08830910598F341E00897C7
:100BA00009F040E08091E8008E778093E8006115BD
:100BB000710549F64111C7CF06C0809172018823A3
:100BC00051F0853051F08091E80082FFF6CF80E04F
:100BD000089581E0089582E0089583E00895EF92FA
:100BE000FF920F931F93CF93DF93CDB7DEB7AC97F0
:100BF0000FB6F894DEBF0FBECDBFE3E7F1E0809102
:100C0000F100819321E0EB37F207C9F752DD8091C3
:100C1000E80083FF31C18091730190917401953098
:100C200009F487C038F49130B1F170F0933009F0D5
:100C300023C131C0983009F4F4C0993009F400C1DF
:100C4000963009F019C19CC0803821F0823809F033
:100C500013C108C080916F0190917001992389F0B0
:100C600082600FC080917701909178018F709927F1
:100C70008093E9008091EB0085FB882780F9109232
:100C8000E9009091E800977F9093E8008093F1004D
:100C90001092F100D1C0882319F0823009F0ECC025
:100CA0008F7121F0823009F0E7C00BC0809175018F
:100CB000813009F0E1C0933009F080E08093700149
:100CC0002FC08091750181112BC080917701909187
:100CD00078018F709927009709F4CEC08093E900BE
:100CE0002091EB0020FF1CC020917401233021F4DF
:100CF0008091EB00806212C09091EB009061909324
:100D0000EB0021E030E001C0220F8A95EAF7209342
:100D1000EA001092EA008091EB0088608093EB007B
:100D20001092E9008091E800877F8093E8006FDDF2
:100D3000A3C08111A1C000917501109176010F77B8
:100D40001127E02EFFB6F8948091E800877F80930A
:100D5000E8005DDD8091E80080FFFCCF8091E3003A
:100D60008078802B8093E30080688093E300EE20FE
:100D700011F083E001C082E080937201FFBE7CC06D
:100D80008058823008F078C080917501909176018A
:100D90008C3D23E0920771F583E08A838AE28983A0
:100DA0004FB7F894DE01139620E03EE051E2E32FC6
:100DB000F0E050935700E49120FF03C0E295EF70FC
:100DC0003F5FEF708E2F90E0EA3010F0C79601C0C1
:100DD000C0968D939D932F5F243149F74FBF80912B
:100DE000E800877F8093E8006AE270E0CE01019618
:100DF000F0DD11C0AE01455D5F4F6091770193DC7E
:100E00000097D1F12091E800277F2093E800BC01F2
:100E10008BA59CA584DE8091E8008B778093E80009
:100E20002BC0803849F58091E800877F8093E800E7
:100E300080916E018093F1008091E8008E7775CFEC
:100E400081111AC0909175019230B0F48091E80040
:100E5000877F8093E80090936E01D9DC80916E01CA
:100E6000811104C08091E30087FF02C084E001C0CB
:100E700081E08093720108DC8091E80083FF0AC062
:100E80008091EB0080628093EB008091E800877F87
:100E90008093E800AC960FB6F894DEBF0FBECDBFCE
:100EA000DF91CF911F910F91FF90EF9008950895DA
:100EB000CF93809172018823A9F08091E9008F700F
:100EC0009091EC0090FF02C090E801C090E0C92F23
:100ED000C82B1092E9008091E80083FD80DECF707E
:100EE000C093E900CF910895FC0106C09091C8001D
:100EF00095FFFCCF8093CE0081918111F7CF0895AB
:100F00008091C80085FFFCCF8CE78093CE00809154
:100F1000070180589091C80095FFFCCF8093CE00C8
:100F20002FE78AE196E0215080409040E1F700C031
:100F3000000008952091C80025FFFCCF2EEF2093DC
:100F4000CE002091C80025FFFCCF21E02093CE00E9
:100F5000CBCF2091C80025FFFCCF2EEF2093CE00F1
:100F60002091C80025FFFCCF20EC2093CE00BCCF01
:100F700080915E018230B1F030F4882351F08130ED
:100F800009F05EC009C0833039F1843009F058C0DF
:100F90004FC08AE091E0CECF87E191E0CBDF81E2E4
:100FA00091E04DC08AE291E0C5DF809107011F9278
:100FB0008F9388E391E09F938F938FE591E09F93C8
:100FC0008F9376D28FE591E0C4DF0F900F900F9052
:100FD0000F900F900F9094CF80917A0084FFFCCFF8
:100FE00080917A00806180937A008091780090915E
:100FF000790090930901809308018BE391E09ADFD7
:10100000809109018F93809108018F9388E391E08B
:101010009F938F9381E691E09F938F9349D20F9096
:101020000F900F900F900F900F9081E691E007C006
:1010300082E491E07FDF80916B0190916C0189CF18
:1010400008952FEF89E698E1215080409040E1F724
:1010500000C0000083E390E09093CD008093CC002B
:1010600086E08093CA001092C80088E18093C9008E
:10107000539A5A9A7DDF8EE18093070141CF8F9278
:101080009F92AF92BF92CF92DF92EF92FF920F9317
:101090001F93CF93DF9303B10472C0E0D0E010E060
:1010A00013C0011104C0112371F011500CC0612F45
:1010B00070E080E090E0B5D820E030E040E051E41E
:1010C00084D887FD1F5F2196C830D10551F71123C1
:1010D00091F0612F70E080E090E0A3D8C1E0D0E013
:1010E00020E030E040E051E444D887FF02C0C0E097
:1010F000D0E07E0102C0E12CF12C03B10870C0E009
:10110000D0E010E013C0011104C0112371F01150A0
:101110000CC0612F70E080E090E083D820E030E0E8
:1011200040E051E452D887FD1F5F2196C830D105B9
:1011300051F7112391F0612F70E080E090E071D8B9
:10114000C1E0D0E020E030E040E051E412D887FF79
:1011500002C0C0E0D0E06E0102C0C12CD12C0CB1A5
:101160000074C0E0D0E010E013C0011104C01123EE
:1011700071F011500CC0612F70E080E090E051D808
:1011800020E030E040E051E420D887FD1F5F219649
:10119000C830D10551F7112379F0612F70E080E05C
:1011A00090E03FD8C1E0D0E020E030E040E051E402
:1011B0000E94B90087FF02C0C0E0D0E0A3B080E188
:1011C000A82200E010E0B12C15C0A11004C0BB2083
:1011D00079F0BA940DC06B2D70E080E090E021D8DA
:1011E00020E030E040E051E40E94E50087FDB39448
:1011F0000F5F1F4F0830110541F7BB2079F06B2DB1
:1012000070E080E090E00DD801E010E020E030E0F8
:1012100040E051E40E94B90087FF02C000E010E006
:1012200089B080E18822A12CB12C912C17C08110AB
:1012300004C0992081F09A940EC0692D70E080E07E
:1012400090E00E94110120E030E040E051E40E9473
:10125000E50087FD93948FEFA81AB80A88E0A816D6
:10126000B10429F7992089F0692D70E080E090E0C1
:101270000E941101AA24A394B12C20E030E040E0A8
:1012800051E40E94B90087FF02C0A12CB12CE114E7
:10129000F10469F4C114D10451F4209741F401150B
:1012A000110529F4A114B10411F410926D0180917B
:1012B0006D018111A0C080915E01823049F130F44E
:1012C000882351F0813009F079C011C08330E9F1F1
:1012D000843009F073C044C0209719F081E08093F6
:1012E0005E010115110509F469C083E036C020973D
:1012F00019F084E080935E010115110511F0109240
:101300005E01CD2809F474C082E080935E0160C064
:10131000E114F10419F081E080935E01209739F027
:10132000809107018A3118F48B5F809307010115C2
:10133000110509F443C020910701822F90E0059721
:10134000ECF125502093070139C0209711F010923D
:101350005E010115110591F184E080935E012EC0BC
:10136000209739F083E080935E0110926C01109217
:101370006B010115110539F081E080935E01109237
:101380006C0110926B01E114F10431F08BE491E0F7
:1013900090936C0180936B01C114D10431F080E50E
:1013A00091E090936C0180936B01A114B10431F032
:1013B00086E591E090936C0180936B01EF2841F4F6
:1013C000CD2831F4CD2B21F4012B11F4AB2899F069
:1013D00081E080936D01DF91CF911F910F91FF907C
:1013E000EF90DF90CF90BF90AF909F908F90C0CD47
:1013F000EF2841F3EDCFDF91CF911F910F91FF9037
:10140000EF90DF90CF90BF90AF909F908F90089516
:101410002F923F924F925F926F927F928F929F9204
:10142000AF92BF92CF92DF92EF92FF920F931F93F2
:10143000CF93DF93CDB7DEB7CA1BDB0B0FB6F894A3
:10144000DEBF0FBECDBF09942A88398848885F84E3
:101450006E847D848C849B84AA84B984C884DF8054
:10146000EE80FD800C811B81AA81B981CE0FD11D38
:101470000FB6F894DEBF0FBECDBFED01089506D0C4
:1014800084FF0895CB0102D0805F0895AA27992395
:1014900029F4A85F982B11F480E10895903118F495
:1014A000AD5F9295A395990FE8F78A2F9927089534
:1014B000A0E1B0E0EDE5FAE0B9CF0F89188D86E044
:1014C0008C831A8309838FEF9FE79E838D83AE0100
:1014D000455E5F4F588B4F87698D7A8DCE0101969F
:1014E00008D0EF81F885E00FF11F10826096E4E0EC
:1014F000B9CFACE0B0E0EEE7FAE08ACF7C016B0157
:101500008A01FC0117821682838181FFBAC1882477
:101510008394912C8C0E9D1EF7019381F60193FD0F
:10152000859193FF81916F01882309F4A6C18532CB
:1015300039F493FD859193FF81916F01853221F4F8
:10154000B70190E0BAD1E8CF712C312C20E02032E5
:10155000A8F48B3261F028F4803251F0833271F4B8
:101560000BC08D3239F0803349F4216028C02260ED
:10157000246025C0286023C0206121C027FD27C02A
:10158000382F30533A3078F426FF06C0FAE07F9EB9
:10159000300D1124732E13C08AE0389E300D1124B3
:1015A000332E20620CC08E3221F426FD66C12064E9
:1015B00006C08C3611F4206802C0883641F4F6016A
:1015C00093FD859193FF81916F018111C0CF982F79
:1015D0009554933018F09052933028F40C5F1F4FBD
:1015E000FFE3F9830DC0833631F0833771F0833523
:1015F00009F05AC022C0F801808189830E5F1F4F15
:1016000066246394712C540114C02801F2E04F0E3B
:10161000511CF801A080B18026FF03C0672D70E047
:1016200002C06FEF7FEFC5012C873CD13C018201E6
:101630002C856FE7262E222217C02801F2E04F0EDC
:10164000511CF801A080B18026FF03C0672D70E017
:1016500002C06FEF7FEFC5012C8719D13C012C85AB
:1016600050E8252E222A820123FC1AC005C0B701AA
:1016700080E290E022D13A94832D90E068167906BA
:10168000B0F30EC0F50127FC859127FE81915F0123
:10169000B70190E012D131103A94F1E06F1A71085D
:1016A0006114710479F7E6C0843611F0893639F592
:1016B000F80127FF07C060817181828193810C5FEF
:1016C0001F4F08C060817181882777FD8095982F12
:1016D0000E5F1F4F4FE6642E622297FF09C0909560
:1016E0008095709561957F4F8F4F9F4FF0E86F2ADF
:1016F0002AE030E0A4010DD1A82EA81843C08537F8
:1017000031F43FEEB32EB2222AE030E024C099EF4C
:10171000B92EB2228F36B9F020F4883509F0ADC069
:101720000DC0803721F0883709F0A7C002C020E142
:10173000B22AB4FE0BC084E0B82A08C024FF09C056
:10174000E6E0BE2A06C028E030E005C020E130E037
:1017500002C020E132E0F801B7FE07C0608171816C
:10176000828193810C5F1F4F06C06081718180E090
:1017700090E00E5F1F4FA401CCD0A82EA8188FE7D1
:10178000682E6B2066FE0BC0362D3E7FA71450F4EA
:1017900064FE0AC062FC08C0362D3E7E05C0BA2C2D
:1017A000362D03C0BA2C01C0B72C34FF0DC0FE018A
:1017B000EA0DF11D8081803311F4397E09C032FFBA
:1017C00006C0B394B39404C0832F867809F0B39411
:1017D00033FD13C030FF0EC07A2CB31458F4730CD1
:1017E0007B18B32C07C0B70180E290E03C8765D03E
:1017F000B3943C85B314B8F304C0B31410F43B188D
:1018000001C0312C34FF11C0B70180E390E03C8768
:1018100054D03C8532FF1CC031FF03C088E590E006
:1018200002C088E790E0B7010CC0832F867881F072
:1018300031FD02C080E201C08BE237FD8DE2B701CD
:1018400090E03BD005C0B70180E390E036D07A94B9
:10185000A714C8F3AA94F401EA0DF11DB701808121
:1018600090E02BD0A110F6CF05C0B70180E290E048
:1018700024D03A943110F9CF4FCEF7012681378129
:1018800002C02FEF3FEFC9012C96E2E1DDCDFC0154
:101890000590615070400110D8F7809590958E0F9B
:1018A0009F1F0895FC016150704001900110D8F70E
:1018B000809590958E0F9F1F08950F931F93CF9340
:1018C000DF938C01EB018B8181FD03C00FEF1FEFD4
:1018D0001AC082FF0DC02E813F818C819D81281707
:1018E000390764F4E881F9810193F983E88306C03C
:1018F000E885F985802F0995892B41F78E819F8195
:1019000001969F838E83C801DF91CF911F910F9124
:101910000895FA01AA27283051F1203181F1E89485
:101920006F936E7F6E5F7F4F8F4F9F4FAF4FB1E0D2
:101930003ED0B4E03CD0670F781F891F9A1FA11DCD
:10194000680F791F8A1F911DA11D6A0F711D811DCE
:10195000911DA11D20D009F468943F912AE0269F93
:1019600011243019305D3193DEF6CF010895462FF2
:101970004770405D4193B3E00FD0C9F7F6CF462FD3
:101980004F70405D4A3318F0495D31FD405241933C
:1019900002D0A9F7EACFB4E0A695979587957795F9
:1019A0006795BA95C9F700976105710508959B0180
:1019B000AC010A2E06945795479537952795BA9509
:1019C000C9F7620F731F841F951FA01D0895F89417
:0219D000FFCF47
:1019D200000000000000080F050048656C6C6F2CC9
:1019E200204A6F7368210053657474696E67733A95
:1019F200004E6F7468696E672100533A2042726923
:101A02006768746E65737300256400414443202344
:101A12003100427574746F6E7321004C65667400F8
:0E1A220052696768740043656E746572000057
:00000001FF
